:020000040800F2
:100000005007002099010008A1010008A301000881
:10001000A5010008A7010008A901000800000000D0
:10002000000000000000000000000000AB0100081C
:10003000AD01000800000000AF010008F909000848
:10004000B3010008B3010008B3010008B3010008C0
:10005000B3010008B3010008B3010008B3010008B0
:10006000B3010008B3010008B3010008B3010008A0
:10007000A9040008B3010008C1040008B301000886
:10008000B3010008D9040008B3010008B301000857
:10009000B3010008B3010008B3010008B301000870
:1000A000B3010008B3010008B3010008B301000860
:1000B000B3010008B3010008B3010008B301000850
:1000C000B3010008B3010008B3010008B301000840
:1000D000B3010008790A0008910A0008A90A00087B
:1000E000B3010008B3010008B301000800F002F8F2
:1000F00000F043F80AA090E8000C82448344AAF17F
:100100000107DA4501D100F038F8AFF2090EBAE87C
:100110000F0013F0010F18BFFB1A43F0010318473B
:10012000841F0000A41F0000103A24BF78C878C1C3
:10013000FAD8520724BF30C830C144BF04680C60ED
:10014000704700000023002400250026103A28BF35
:1001500078C1FBD8520728BF30C148BF0B60704739
:100160001FB59DE8030000F0A1F800F039F81FBDAD
:1001700010B5002001F061FA10BD00F0F4F811464E
:10018000FFF7EEFF01F0BAFA00F02CF903B4FFF725
:10019000EFFF03BC00F062F90948804709480047B7
:1001A000FEE7FEE7FEE7FEE7FEE7FEE7FEE7FEE727
:1001B000FEE7FEE704480549054A064B7047000084
:1001C000190A0008ED000008500100205007002027
:1001D0005003002050030020704770477047000014
:1001E00070B5064C7C44064D7D4403E020682044F5
:1001F0008047241DAC42F9D170BD0000DC1E000018
:10020000E41E0000004870472801002070B5064633
:1002100000F030F8056806F10B0020F00704B44246
:100220009CBF002070BD2B466A68BAB11068A0421E
:1002300010D304F1080188423CBF5068586007D3CE
:100240005168101941601168091B01605860146001
:10025000101D70BD13465268002AE7D1214628467A
:1002600000F010F80028DED170BD00000048704793
:10027000F000002000487047F800002070477047E9
:100280007047704738B504460A4600206946AFF308
:100290000080002808BF38BD02460099204600F0C3
:1002A00087F8012038BD012000F0A2B8F8B5AFF3FF
:1002B0000080054600200C46102000BF0646A81905
:1002C000A0420DD9324669460020AFF300800700F6
:1002D00008BF00F08DF80098A04218BF0546C41969
:1002E000FFF7C8FF05600746F01D20F0070046191C
:1002F000284600F00AF8B44208BFF8BDA21B3146F8
:100300003868BDE8F84000F053B800210160C0E94A
:10031000011070471020704770B50446051FFFF7A5
:10032000A9FF0068002C14BF446870BD002C18BFE2
:10033000AC423CBF20466468F8D301680A18AA4260
:1003400018BF456003D12A6805461144016028683A
:100350004119A1421CBF6C6070BD61686960216871
:100360000844286070BD7546FFF780FFAE46050063
:100370006946534620F00700854618B020B5FFF7C0
:1003800019FFBDE820404FF000064FF000074FF086
:1003900000084FF0000B21F00701AC46ACE8C009A3
:1003A000ACE8C009ACE8C009ACE8C0098D467047AC
:1003B000034640688C46002818BF88423CBF03466D
:1003C0004068F8D318681844884207D00CF103003D
:1003D00020F00700001D411A521A0146081D0A604C
:1003E000FFF79ABF0446AFF300802046FFF7CEFE2A
:1003F00010B500F00BF8BDE8104000F001B87047F0
:10040000002801D000F02AB87047000010B501287C
:1004100005D0002103A000F027F8012010BD09A19C
:10042000F8E7000053494752544D454D3A204F7567
:1004300074206F662068656170206D656D6F7279DC
:10044000000000003A2048656170206D656D6F7294
:100450007920636F727275707465640001491820A9
:10046000ABBEFEE72600020070B505460C460A202A
:1004700000E06D1C00F011F835B128780028F8D1A3
:1004800002E0641C00F009F814B120780028F8D1CB
:10049000BDE870400A20AFF3008008B569468DF8CA
:1004A00000000320ABBE08BD10B50448006818B1B9
:1004B0000248006800F006FE10BD00000C0000209D
:1004C00010B50448006818B10248006800F0FAFD51
:1004D00010BD00000400002010B50448006818B1E9
:1004E0000248006800F0EEFD10BD0000080000208A
:1004F00000F0805111B10349086001E002494860F1
:1005000070470000040402400000024000F08051E7
:1005100011B10349086001E00249486070470000DA
:10052000040402400000024021B1026842F00102CE
:10053000026004E002684FF6FE731A4002607047E2
:1005400001460020002201F0805313B1054B1A68C8
:1005500001E0054B1A6802EA01030BB1012000E03B
:1005600000207047000402400000024010B5002245
:10057000026847F6F0739A430C6A8B6823430C6950
:1005800023434C6923438C692343CC6923434C6A3E
:1005900023438C6A23431A430260CB6843600B6891
:1005A00083604B68C36010BD2DE9F0410246002511
:1005B0000026002000230024002791F803C00CF03F
:1005C0000F0591F803C00CF0100CBCF1000F03D024
:1005D00091F802C04CEA050591F800C0BCF1000F8B
:1005E00031D0146800202BE04FF0010C0CFA00F31E
:1005F000B1F800C00CEA03069E4220D183004FF000
:100600000F0C0CFA03F7BC4305FA03FC4CEA040494
:1006100091F803C0BCF1280F06D14FF0010C0CFA81
:1006200000FCC2F814C00AE091F803C0BCF1480F06
:1006300005D14FF0010C0CFA00FCC2F810C0401CB0
:100640000828D1D31460B1F800C0BCF1FF0F34DD2D
:10065000546800202EE000F1080C4FF0010808FA61
:100660000CF3B1F800C00CEA03069E4221D18300CE
:100670004FF00F0C0CFA03F7BC4305FA03FC4CEAED
:10068000040491F803C0BCF1280F05D100F1080C57
:1006900008FA0CF8C2F8148091F803C0BCF1480FB6
:1006A00007D100F1080C4FF0010808FA0CF8C2F865
:1006B0001080401C0828CED35460BDE8F0810000B3
:1006C000F0B50A46002300240021002500F0004672
:1006D000B6F1004F02D11D4EF16901E01B4E716869
:1006E000C0F3034583B200F44016B6F5401F08D1AD
:1006F00021F07061154E766826F07066134F7E60AB
:1007000012E000F48016B6F5801F06D1032606FA23
:1007100005F4A14341F0706106E0460D360103FA8D
:1007200006F6B14341F0706122B1460D360103FA7D
:1007300006F6314300F00046B6F1004F02D1034EF9
:10074000F16101E0014E7160F0BD00000000014068
:10075000416170470161704770B5002100230F228D
:10076000C47804B3154C246804F4E064C4F5E06470
:10077000210AC1F10403CA40447804FA03F18478E1
:100780001440214309010E4C0678A155047804F069
:100790001F050124AC4005786D11AD0005F1E02581
:1007A000C5F8004109E0047804F01F050124AC40BD
:1007B000044D0678761145F8264070BD0CED00E03A
:1007C00000E400E080E100E002490143024A1160D8
:1007D000704700000000FA050CED00E029B1064A60
:1007E00052690243044B5A6104E0034A526982434E
:1007F000014B5A61704700000010024029B1064ABF
:10080000D2690243044BDA6104E0034AD2698243AD
:10081000014BDA61704700000010024029B1064A1E
:1008200092690243044B9A6104E0034A926982434D
:10083000014B9A61704700000010024030B5002162
:100840000022002400232D4D6D6805F00C0121B11C
:10085000042905D0082923D105E0294D056022E0AF
:10086000274D05601FE0254D6D6805F47012234D7E
:100870006D6805F48034022505EB92421CB9214DC8
:10088000554305600BE01D4D6D6805F400351DB145
:100890001C4D5543056002E0194D5543056002E0CB
:1008A000174D056000BF00BF144D6D6805F0F001E5
:1008B0000909154D6B5C0568DD4045600F4D6D689D
:1008C00005F4E061090A104D6B5C4568DD40856008
:1008D0000A4D6D6805F46051C90A0B4D6B5C4568A3
:1008E000DD40C560054D6D6805F44041890B074D3D
:1008F0006B5CC568B5FBF3F5056130BD00100240C7
:1009000000127A0000093D0033000020430000205F
:1009100010B500F001F810BD0CB50020019000905A
:100920003348006840F480303149086000BF3048E7
:10093000006800F4003000900198401C019000987D
:1009400018B90198B0F5A06FF1D12948006800F4FA
:10095000003010B10120009001E0002000900098CC
:10096000012843D12348006840F010002149086065
:100970000846006820F0030008600846006840F060
:10098000020008601A4840681949486008464068F3
:1009900048600846406840F4806048600846406807
:1009A00020F47C1048600846406840F4E810486035
:1009B0000846006840F08070086000BF0C4800687E
:1009C00000F000700028F9D00948406820F00300CA
:1009D000074948600846406840F00200486000BF90
:1009E0000348406800F00C000828F9D10CBD000055
:1009F000001002400020024010B5044A044B054993
:100A000003C900F06FFF034A03C210BDCDCCCCCCAC
:100A1000CCCCFC3F2800002010B51348006840F003
:100A200001001149086008464068104908400E4915
:100A30004860084600680E4908400B4908600846AF
:100A4000006820F4802008600846406820F4FE001A
:100A500048604FF41F008860FFF75AFF4FF00060B6
:100A60000449086010BD0000001002400000FFF8BB
:100A7000FFFFF6FE08ED00E010B50448006818B16D
:100A80000248006800F0B6FA10BD00000400002023
:100A900010B50448006818B10248006800F0AAFACE
:100AA00010BD00000800002010B50448006818B10F
:100AB0000248006800F09EFA10BD00000C00002003
:100AC00010B50022002340F66A14A14200D100BFF5
:100AD0000A1201249440A3B2DC43048010BD21B16A
:100AE000828942F40052828104E082894DF6FF73CC
:100AF0001A40828170471AB1838A0B43838202E0D5
:100B0000838A8B438382704702460020B1F5007FC1
:100B100000D100BF13880B400BB1012000E0002082
:100B2000704770B50246002400230025002040F6DF
:100B30006A16B14200D100BFC1F3421501F01F0394
:100B4000012606FA03F3012D02D19689334006E00F
:100B5000022D02D1168A334001E0968A33400C12EE
:100B6000012606FA04F41688344013B10CB10120B2
:100B700000E0002070BDF0B50346002400260025EB
:100B8000002040F66A17B94200D100BF1846C1F3F1
:100B9000421401F01F06012707FA06F5012C01D1C6
:100BA0000C3004E0022C01D1103000E014301AB1F6
:100BB00007682F43076002E00768AF430760F0BD96
:100BC0002DE9F04786B005460E460024A24600BF38
:100BD000A1460027B08900B100BF2F462C8A4CF6F1
:100BE000FF700440F08804432C82AC894EF6F31069
:100BF0000440B08831890843718908430443AC81BB
:100C0000AC8A4FF6FF400440B0890443AC8201A88F
:100C1000FFF714FE1F48874202D1DDF810A001E063
:100C2000DDF80CA0A88900F4004040B10AEBCA002E
:100C300000EB0A1031684900B0FBF1F807E00AEB5D
:100C4000CA0000EB0A1031688900B0FBF1F864209B
:100C5000B8FBF0F004012009642101FB1089A88988
:100C600000F4004040B1322000EBC900B0FBF1F0CD
:100C700000F00700044308E0322000EB0910642173
:100C8000B0FBF1F000F00F0004432C8106B0BDE88A
:100C9000F08700000038014001468888C0F3080052
:100CA0007047C1F308028280704700002DE9F047C9
:100CB0004FF0E021886901F021F806460022174B29
:100CC00000F0C4FE04460D46154A164B164903C9EA
:100CD00000F008FE804622462B4601F0E9F8134A50
:100CE00003C2134811490CC803C901F0E1F80446D6
:100CF000104A114B01F0A6F807D2094A094B0B49DB
:100D000003C901F0D5F8094A03C2084903C9084AD2
:100D100003C2064903C9BDE8F0870000882A614183
:100D2000CDCCCCCCCCCCFC3F28000020180000203F
:100D30002000002062105839B4C8FC3F2DE9FC5F48
:100D400083468A4616461F46FFF7B0FF04460D4607
:100D5000DAE9008342462046294601F0A9F83246E6
:100D60003B46CDE9000101F06DF804D8CAE9004521
:100D70000120BDE8FC9F0020FBE700004FF0E021D0
:100D8000096921F004014FF0E0221161034951612A
:100D90001146096941F00301116170474031F700C4
:100DA000FEB505460C4600200190029000902046BA
:100DB00000F012F9C6B2052E2FDD01226946204649
:100DC00000F0F6F89DF80000AA2824D10122694617
:100DD000204600F0EDF89DF80000BB2819D100BFB7
:100DE000204600F0F9F80428FADBAA208DF8040068
:100DF000BB208DF8050004220DF10601204600F00D
:100E0000D7F8204600F0EFF801A9284600F007F8CF
:100E1000FEBD0020FCE70020FAE70020F8E710B54F
:100E200003460878AA2813D14878BB2810D100229D
:100E3000002004E00C5C1444E2B2441CE0B205283B
:100E4000F8DB4879904201D1C87810BD0020FCE75A
:100E50000020FAE77CB506460C4615460CA103C9EE
:100E6000CDE900018DF80250002008E09DF8041043
:100E70001DF800201144C9B28DF80410401C04284C
:100E8000F4DB05226946204600F060F97CBD0000D5
:100E9000BBAA00FF000000007047000010B5044628
:100EA0001F496068884204D101210420FFF7B6FC85
:100EB00034E01C496068884204D101210820FFF712
:100EC000ADFC2BE018496068884204D10121102054
:100ED000FFF7A4FC22E015496068884204D1012193
:100EE0002020FFF79BFC19E011496068884204D17B
:100EF00001214020FFF792FC10E00E496068884213
:100F000004D101218020FFF789FC07E00A496068CD
:100F1000884203D101218015FFF780FC10BD00003D
:100F200000080140000C0140001001400014014085
:100F300000180140001C01400020014070B504462B
:100F40000D46002D07DD2289074B33F8121060682B
:100F5000FFF700FC06E02289034B33F812106068AB
:100F6000FFF7F6FB70BD0000842000082DE9F84370
:100F700004460F4615461E46DDF82080267084F88C
:100F80000180676025812046FFF788FF074830F819
:100F90001500ADF800008DF802808DF803606946F9
:100FA0006068FFF701FB2046BDE8F8838420000855
:100FB00070B504460E46154604F13A0000F082FC76
:100FC000A84201DA002070BD2A46314604F13A00F9
:100FD00000F038FC0120F6E710B5044604F13A00B1
:100FE00000F070FC10BD10B5044604F13A0000F0AA
:100FF0006CFC10BD38B5044640F22551D4F88C0085
:10100000FFF78FFD88B1D4F88C00FFF745FEC0B222
:101010006946009004F13A0000F0FAFB40F22551D5
:10102000D4F88C00FFF74CFD00BF40F22771D4F8D4
:101030008C00FFF776FDE0B1204600F043FC00286D
:1010400009DD1E49204600F0CBFB1C490978D4F885
:101050008C00FFF726FE204600F034FC48B9002241
:1010600040F22771D4F88C00FFF785FD002084F84A
:10107000980040F22661D4F88C00FFF752FDE0B1F1
:10108000204600F01FFC002809DD0D49204600F035
:10109000A7FB0B490978D4F88C00FFF702FE204625
:1010A00000F010FC48B9002240F22661D4F88C0010
:1010B000FFF761FD002084F8980038BD3100002062
:1010C0003200002070B50446D4F89000FFF738FADB
:1010D000012839D18834E068FFF718FAA068FFF7D3
:1010E00007FA54F888090021FFF71EFA204600F09D
:1010F000E9FB002825DD204600F0E4FB142810DC85
:10110000204600F0DFFBD4F888104860204600F04D
:10111000D9FB05462A4604F17401204600F092FBF3
:1011200009E01420D4F888104860142204F17401F6
:10113000204600F087FB0121D4F88800FFF7F4F97E
:1011400002E0002084F8980070BD00002DE9F04115
:1011500004460E461546AAB23146204600F091FBE1
:1011600094F8990078B394F8980060BB204600F09A
:10117000A9FB002827DD012084F89800204600F014
:10118000A1FB142810DC204600F09CFBD4F888104A
:101190004860204600F096FB07463A4604F1740189
:1011A000204600F04FFB09E01420D4F88810486076
:1011B000142204F17401204600F044FB0121D4F80C
:1011C0008800FFF7B1F994F8990020BB94F89800D3
:1011D00008BB204600F076FB00281CDD54F88C0F7D
:1011E00040F22661FFF76CFC012240F22661206884
:1011F000FFF7C1FC40212068FFF786FC0120207327
:101200008C3C0649204600F0EBFA04490978D4F8F2
:101210008C00FFF746FD0120BDE8F0813000002082
:101220002DE9F04F93B004460E4692469B461C9F14
:10123000204600F04FFB044604F13A0000F04AFB60
:10124000A0F13A04002084F8980084F899B00320B3
:1012500084F89A0018208DF84B0003208DF84A007E
:101260008DF8460004208DF84700012E34D1C64881
:10127000C4F88C004FF0250894F8990048B1C34891
:1012800044F8880F4FF00E097003A0604010E06032
:10129000883CBF480460012F10D1012144F20900AD
:1012A000FFF7BCFA01210420FFF70AFA4020ADF84D
:1012B00048008020ADF84400B64D9FE0012144F283
:1012C0000500FFF7ABFA4FF40070ADF8480040009E
:1012D000ADF84400B04D91E0022E3AD1AF48C4F8C9
:1012E0008C004FF0260894F8990050B1A7483C3084
:1012F00044F8880F4FF011098004A0604010E060AE
:10130000883CA7480460012F13D101214804FFF74E
:1013100075FA01212120FFF781FA01210820FFF74A
:10132000CFF92020ADF848004020ADF844009D4D95
:1013300064E001214804FFF761FA01210520FFF76D
:101340006DFA0420ADF848000820ADF84400924D35
:1013500054E0032E52D19448C4F88C004FF0270873
:1013600094F8990050B18948283844F8880F4FF014
:101370000C092020A0601020E060883C8B480460AD
:10138000012F13D101218804FFF738FA0121112020
:10139000FFF744FA01218648FFF792F9B802ADF849
:1013A00048004000ADF84400824D27E0112F15D1D0
:1013B00001218804FFF722FA01212120FFF72EFAEC
:1013C00001217B482030FFF77BF94FF48070ADF8A6
:1013D00048004000ADF84400724D0FE00121880440
:1013E000FFF70CFA01210920FFF718FA4FF480608B
:1013F000ADF848004000ADF84400664D12A92846FB
:10140000FFF7D2F811A92846FFF7CEF8CDF834A09F
:101410002298ADF838002398ADF83A002198ADF83D
:101420003C000020ADF840000C20ADF83E0054F820
:101430008C0F0DA9FFF7C4FB01212068FFF74FFBBC
:10144000607B8C3C00283FD001228021D4F88C00A6
:10145000FFF751FB01210846FFF7C0F9D4F88C00D3
:10146000001D019004F174000290102003900020F0
:101470000490059080200690002007900890099025
:10148000209820B1012806D002280CD107E04FF4A3
:1014900040500A900AE04FF400500A9006E04FF4E2
:1014A00080500A9002E000200A9000BF00BF002098
:1014B0000B9001A9D4F88800FFF758F80021D4F860
:1014C0008800FFF731F806E0002240F22661D4F8E8
:1014D0008C00FFF750FB1D9830B1012809D002287D
:1014E0000CD004280FD113E04FF4E060FFF76CF943
:1014F00013E04FF4C060FFF767F90EE04FF4A0600F
:10150000FFF762F909E04FF48060FFF75DF904E04E
:101510004FF44070FFF758F900BF00BF8DF83080DE
:101520001E988DF831001F988DF8320001208DF83B
:1015300033000CA8FFF710F9012240F22551D4F82E
:101540008C00FFF718FB94F89900C0B18DF830902B
:101550001E988DF831001F988DF832000CA8FFF707
:10156000FBF854F8880F006840F00200216808601A
:101570002068006840F0080054F888190860204688
:1015800013B0BDE8F08F0000003801404400024075
:1015900004000020000C014000080140004400400D
:1015A0000800002000140140004800400C0000200A
:1015B00010001400001001400D4AD0F88C10914228
:1015C00003D100210B4A116010E00B4AD0F88C10B7
:1015D000914203D10021094A116007E0084AD0F87E
:1015E0008C10914202D10021064A11607047000020
:1015F00000380140040000200044004008000020A2
:10160000004800400C0000202DE9F04107469046BC
:101610000E4600251020FEF7F9FD04000BD0C4F89B
:101620000C80C4E90176FEF7EDFD016821600460DD
:101630002846BDE8F0810125FAE72DE9F04106468C
:10164000FEF7E0FD804613E026B1E068B04201D02D
:1016500025460EE020682860D4E90101D8F8007022
:1016600088472046FEF758FED8F80000B84200D060
:1016700045462C68002CE7D1BDE8F08100B5024852
:10168000FFF77CFB00BD00001000002000B5024801
:10169000FFF702FC00BD00000000002010B588B07C
:1016A00000200323CDE90430069007900120072194
:1016B0001A460023CDE90032CDE9021003464FF46B
:1016C000E13202210848FFF7ABFD0446074A08490A
:1016D000FFF79AFF032010230D22064900900648C9
:1016E000FFF744FC08B010BD4800002000000008CF
:1016F000B9150008000C0140E400002086B000216C
:1017000004910591029103910091019100245CE004
:101710002E492F48FFF744FB0446012C04D0022C2D
:1017200021D0032C43D13DE001212A48FFF706FCDC
:1017300016E00022284B04A92848FFF7FFFA20B141
:10174000012222492248FFF785FB20492048FFF764
:1017500027FB032804D100211E48FFF7EFFB00E020
:10176000E7E700BF30E001211A48FFF7E7FB16E08A
:101770000022194B02A91948FFF7E0FA20B1022212
:1017800012491348FFF766FB10491148FFF708FBA1
:10179000032804D100210F48FFF7D0FB00E0E7E762
:1017A00000BF11E000210B48FFF7C8FB0CE000224E
:1017B000094B69460948FFF7C1FA20B103220349E2
:1017C0000348FFF747FB00BF00BFA1E74800002028
:1017D00000000020E40000200000F03F1000002086
:1017E00002465088002801DC002070479388581C6E
:1017F000908002F10800C05C0870908813889842BD
:1018000001DB002090805088401E50800120ECE7D2
:1018100010B5024650881388984201DB002010BDA5
:101820000B78D488601CD08002F108000355D08862
:101830001388984201DB0020D0805088401C5080E3
:101840000120ECE730B503465888904201DA0020C9
:1018500030BD00200EE09D886C1C9C8003F10804C4
:10186000645D0C549C881D88AC4201DB00249C8084
:10187000441CA0B29042EEDB5888801A58800120A8
:10188000E6E770B50346588810441C88A04201DD85
:10189000002070BD00200EE00D5CDE88741CDC8032
:1018A00003F10804A555DC881D88AC4201DB002447
:1018B000DC80441CA0B29042EEDB58881044588073
:1018C0000120E6E701464888704700214180818079
:1018D000C180704732210180002141808180C18018
:1018E0007047000010B591EA030F48BF83F0004332
:1018F00000F1E682841A71EB030C05D2121943EB56
:101900000C03001B61EB0C01DFF824E14FEA1154DA
:10191000A4EB135C1EEA430F18BF9EEA445F73D02A
:1019200023EA0E03DCF1200E21EA045143F4801374
:1019300032D322FA0CFE10EB0E0023FA0CFE41EB20
:101940000E01CCF1200E03FA0EFE10EB0E0051F149
:101950000001B1F5801FCCF1200E32D201EB045111
:1019600012FA0EF2BDE8104058BF7047401C38BF55
:101970005FEA420218BF7047002814BF20F0010040
:1019800041F100014FEA410313F5001F38BF7047D2
:10199000A1F1C04100F050BA012A43EB0302ACF1BF
:1019A000200CDCF11F0E32BF4FF0000E23FA0CF3B7
:1019B00010EB030041EB0451B4EB115FD0D0A1EB6D
:1019C000045101F5801149085FEA300001EB045130
:1019D0000ED350F1000038BF12FA0EFE08D1BDE858
:1019E0001040C9E7401C38BF5FEA4202CAD1C3E7D2
:1019F000BDE810404FEA410313F5001F38BF7047A0
:101A0000A1F1C04100F018BA9EEA445F08D011EA83
:101A10005E0FBDE8104004BF01F000410020704798
:101A2000BDE8104070B500F0B9F900BF64FBBE3EE0
:101A30000000E0FF491058BFC1F140415B1058BFA2
:101A4000C3F140438B42EFF3008070472DE9C04162
:101A500030B4DFF8A0C23CEA111418BF3CEA1314FA
:101A600000F0EC8081EA03051CEA111444EAD57405
:101A700018BF1CEA131500F0C780A4EB05044FF053
:101A8000004545EAC12145EAC32341EA505143EAF2
:101A9000525304F17F74994204F500344FEAC02098
:101AA0004FEAC22208BF904200F09C804FEA1365C3
:101AB0000FF24016765D4FEA134506FB05F7C7F1B6
:101AC000807706FB07F74FEAD737A7FB0368764214
:101AD000C8F58038A7FB06CE38BFA8F1010807FB80
:101AE00008E64FF0000EA6FB028CE6FB03CEDCF10D
:101AF000000CCEF1004E38BFAEF1010EA6FB0C5823
:101B00004FF000074FF00005E6FB0E87A1FB08C66B
:101B1000A0FB07CE16EB0E0645F10005E1FB0765BD
:101B200015F1E04E7EBFA4F580345FEA46066D41B4
:101B300016F1800745F100054FEA17274FEA0666C0
:101B400047EA0567A6F1DE46B6F1805F4FEA152544
:101B50001FD9384624F0010C05EBC471BCF1FE6FAF
:101B600001EB0C1102D8F0BCBDE8008124425CBF3F
:101B700001F5801E9EEAC47F02D4F0BCBDE800815E
:101B8000244238D4F0BCA1F1C041BDE8004100F0CE
:101B900053B94FEAD22242EA43524FEAD323A7FB7A
:101BA00002864FEAD02040EA415007FB03661EEA56
:101BB0000E0F4FEAD12105FB026658BFA6EB005677
:101BC000B6EB00564FEA520E4EEAC37E18EB0E0EED
:101BD00056EB530EBDD518EB02085E417F1C55F144
:101BE0000005B6E74FF480154FF000074FF00006F0
:101BF0004FF00008ADE7F0BC4FF0000001F1C0412C
:101C000001F00041BDE8008111EA0C1F0CEA131538
:101C100000D00CE013EA0C1F00F025804FF000000C
:101C2000F0BC81EA030101F00041BDE80081F0BC95
:101C3000BDE8004181EA030100F0FEB8F0BCBDE858
:101C4000004170B500F0AAF8097EFC3E00F007B82C
:101C500081EA03014FF0000001F00041704781EA82
:101C6000030100F0E9B8F0BCBDE800414FF000000E
:101C700021497047FFFDFBF9F7F5F4F2F0EEEDEBCB
:101C8000E9E8E6E4E3E1E0DEDDDBDAD8D7D5D4D37A
:101C9000D1D0CFCDCCCBCAC8C7C6C5C4C2C1C0BFC6
:101CA000BEBDBCBBBAB9B8B7B6B5B4B3B2B1B0AFCC
:101CB000AEADACABAAA9A8A8A7A6A5A4A3A3A2A1B0
:101CC000A09F9F9E9D9C9C9B9A999998979796956B
:101CD00095949393929191908F8F8E8E8D8C8C8B07
:101CE0008B8A89898888878786858584848383828F
:101CF000828181800000FF070000F87FB0FA80F346
:101D000010FA03F10AD0C3F11D0303F580634FEA13
:101D100041504FEA035202EBD12170474FF00000CF
:101D20007047000051EA030C17D41CF5801F58BF00
:101D3000BCF5801F00F10680994218BF704708BFAC
:101D40009042704707D711F5801F58BF13F5801FC9
:101D500019D499427047894270471CF5801F08D5F5
:101D6000BCF5801FF7D58B4218BF704708BF824271
:101D700070474FF4001C1CEB410F38BF1CEB430FA6
:101D800001D28B42704770B500F008F892244900E8
:101D90004FF000514FF08053FFF74CBE0EF1020E92
:101DA0002EF0030E5EF8046B364205D4012A43EB95
:101DB000030515F5001F12D8012841EB010C1CF595
:101DC000001F0CD80ED14FEAD17C15F5001F0CEB8B
:101DD0004C0C0CF1020C08BF4CEBD37C04E04FF030
:101DE000080C01E04FEAD37C0CEB4C0526FA05F613
:101DF00006F00706B6F1040C06D20EEB860CBDE821
:101E000070404CF0010C6047DFE80CF0090B020257
:101E10004FF000414FF00000A1F5002170BD1946C0
:101E20001046012851EB010418BFD4F5001484BFFB
:101E3000002001F0004170BD0808A0F500114FEA34
:101E40003101704753EA010C17D41CF5801F58BFAD
:101E5000BCF5801F00F106808B4218BF704708BF99
:101E60008242704707D713F5801F58BF11F5801FB6
:101E700019D48B4270479B4270471CF5801F08D5D0
:101E8000BCF5801FF7D5994218BF704708BF904234
:101E900070474FF4001C1CEB430F38BF1CEB410F85
:101EA00001D2994270470FB40CBC03BCFFF76BBF63
:101EB00010B591EA030F48BF83F000433FF51AAD18
:101EC000841A71EB030C07D212198CF0004C43EB0F
:101ED0000C03001B61EB0C01DFF8A4E14FEA115485
:101EE000A4EB135C1EEA430F18BF9EEA445F00F0A8
:101EF000B08023EA6E03524221EA0451C3EB6E0321
:101F000038BF5B1EDCF1200E25D322FA0CFE10EB4D
:101F10000E0043FA0CFE41EB0E01CCF1200E03FA49
:101F20000EFE10EB0E0051F10001CCF1200E29D471
:101F300012FA0EF201EB0451BDE8104058BF704791
:101F4000401C1CBFB2F1004F704700280CBF491C59
:101F500020F00100704712EB020E43EB030218BFA2
:101F60004FF0010E4EEA4202ACF1200CDCF11E0EE5
:101F700054D943FA0CFE10EB0E0051F1FF31CCF1B5
:101F80001E0ED5D50EF1010E12FA0EFE404141EBA8
:101F9000010101EB445C5FEA5C5C10D910EBDE7080
:101FA00001EB045138BFBEF1004FBDE8104018BF2F
:101FB000704700280CBF491C20F00100704730D248
:101FC0004FEAD42C11F5001124F400641BD0B1FAAF
:101FD00081F20B3AA41AA41ED2F12003914030FAE8
:101FE00003F31943904001EBCC71002C01EB045139
:101FF000BDE81040A8BF704701F1C0414FF000009C
:1020000001F000417047B0FA80F310FA03F100D1FB
:1020100010BDE41A173C4805C90AE4E701EB045176
:1020200010BD491001EB0451BDE810404FEA3000EB
:1020300002E04FF0000170474A0008BF0042F8D0AC
:10204000B2F5001F28BF704701F000414FF00000BB
:1020500070479EEA445F07D011EA5E0FBDE810406A
:1020600004BF002100207047BDE8104070B5FFF7A5
:1020700095FE00BF40DFF63E83F0004110467047FA
:102080000000E0FF01000200040008001000200032
:102090004000800000010002000400080010002041
:1020A00000400080D0200008000000204800000010
:1020B0002801000818210008480000200807000037
:1020C00044010008D9F5FFFFC5F5FFFFB1F5FFFF9B
:1020D0000000000000000000000000000000000000
:1020E00000000000000000000000000000000000F0
:1020F00000000000000000000000000000000000E0
:1021000000000000000000010203040102030406B5
:0821100007080902040608009B
:04000005080000ED02
:00000001FF
